:100000000C9434000C9451000C9451000C944D014C
:100010000C9451000C9457010C9451000C94510015
:100020000C9451000C9451000C9451000C9451000C
:100030000C9451000C9451000C9478010C945100D4
:100040000C9451000C9451000C9451000C945100EC
:100050000C9451000C94FA000C9451000C94510033
:100060000C9451000C94510011241FBECFEFD8E026
:10007000DEBFCDBF11E0A0E0B1E0E2EDF4E002C0F0
:1000800005900D92A230B107D9F721E0A2E0B1E0CE
:1000900001C01D92A231B207E1F70E94E6000C9464
:1000A00067020C940000ECE7F0E0108280910901F7
:1000B00090818F718066892B8083EAE7F0E010825F
:1000C00080818F6880838081806480830895F89424
:1000D0000E9453000E9468010E94F40184B18E7F47
:1000E00084B985B1816085B98CE18AB98AB18F7193
:1000F0008AB98BB1806E8BB9EBE6F0E080818160CC
:100100008083EDE6F0E08081806E8083E8E6F0E0B9
:1001100080818560808378940895CF92DF92EF92FA
:10012000FF922091070130910801A0EDB7E00E94F5
:100130004402C12CD12C7601CA94A70196010E94D9
:100140002202C9018C509E4F0E9404022091050199
:1001500030910601A0EDB7E00E944402A70196018C
:100160000E942202C9018C509E4F0E9409022091D8
:10017000030130910401A0EDB7E00E944402A70101
:1001800096010E942202C9018C509E4F0E94730169
:10019000FF90EF90DF90CF90089580910001823022
:1001A00049F0833061F0813081F48BB1837E8460CB
:1001B0008BB908958BB1837E88608BB908958BB11C
:1001C000837E80618BB91092000108950E946700C0
:1001D0000E94CD0080910201813049F41092020109
:1001E000809100018F5F809300010E94CD000E94EA
:1001F0008D00F0CF1F920F920FB60F9211245F93D4
:100200006F937F938F939F93AF93BF93EF93FF93DE
:1002100080910901813061F018F0823089F017C0B7
:100220008091790090E090930801809307010FC0BE
:100230008091790090E0909306018093050107C0BA
:100240008091790090E09093040180930301809164
:10025000090190E0019663E070E00E940E02809335
:100260000901ECE7F0E0908180910901907F8F71A6
:10027000892B8083EAE7F0E0808180648083FF91AE
:10028000EF91BF91AF919F918F917F916F915F910E
:100290000F900FBE0F901F9018951F920F920FB6E0
:1002A0000F9211240F900FBE0F901F9018951F9260
:1002B0000F920FB60F9211248F934D9903C081E0D6
:1002C000809302018F910F900FBE0F901F90189591
:1002D00084B1886384B982E084BD85BD94E697BD0E
:1002E00080936E00089590930F0180930E010895FE
:1002F0001F920F920FB60F9211242F933F936F937B
:100300007F938F939F93AF93BF93809110019091B0
:1003100011010196909311018093100180911001B9
:10032000909111018039914020F0109211011092AA
:1003300010018091100190911101892B21F485B158
:10034000886385B944C020910E0130910F01369524
:100350002795ABE7B4E10E944402969587952091DA
:100360001001309111018217930721F485B1877F25
:1003700085B92DC020910C0130910D01369527953E
:10038000ABE7B4E10E944402969587952091100155
:10039000309111018217930721F485B18F7E85B9C1
:1003A00016C020910A0130910B0136952795ABE7D5
:1003B000B4E10E94440296958795209110013091F6
:1003C00011018217930719F485B18F7D85B9BF910B
:1003D000AF919F918F917F916F913F912F910F904E
:1003E0000FBE0F901F90189584B1866084B982EA81
:1003F0008093800082E18093810080E29EE490936C
:1004000087008093860008959093890080938800E8
:10041000089590938B0080938A00089597FB072E90
:1004200016F4009407D077FD09D00E94530207FC10
:1004300005D03EF4909581959F4F089570956195F4
:100440007F4F0895A1E21A2EAA1BBB1BFD010DC010
:10045000AA1FBB1FEE1FFF1FA217B307E407F50774
:1004600020F0A21BB30BE40BF50B661F771F881F50
:10047000991F1A9469F760957095809590959B01E6
:10048000AC01BD01CF010895A29FB001B39FC0018F
:10049000A39F700D811D1124911DB29F700D811DB0
:1004A0001124911D0895AA1BBB1B51E107C0AA1F6F
:1004B000BB1FA617B70710F0A61BB70B881F991F05
:1004C0005A95A9F780959095BC01CD010895F894AF
:0204D000FFCF5C
:0204D200010027
:00000001FF
