S011000050726F796563746F322E737265638C
S11300000C9434000C9446000C9446000C94460066
S11300100C9446000C9446000C9446000C94460044
S11300200C9446000C9446000C9446000C94460034
S11300300C9446000C9446000C9446000C94460024
S11300400C9446000C9446000C9446000C94460014
S11300500C9446000C949D000C9446000C944600AD
S11300600C9446000C94460011241FBECFEFD8E038
S1130070DEBFCDBF21E0A0E0B1E001C01D92A530FC
S1130080B207E1F70E9498000C942E010C94000032
S1130090ECE7F0E010828091040190818F7180641C
S11300A0892B8083EAE7F0E0108280818F68808367
S11300B08081806480830895F8940E9448000E949F
S11300C0E30080EC8AB978940895CF92DF92EF929E
S11300D0FF922091020130910301A0EDB7E00E944C
S11300E01F010F2ECC24CA94F3E0DF2EE12CF12C57
S11300F0F02DA70196010E94FD00C9018C509E4F6E
S11301000E94F3002091000130910101A0EDB7E0BD
S11301100E941F01A70196010E94FD00C9018C5095
S11301209E4F0E94F800FF90EF90DF90CF900895CB
S11301300E945C000E946500FDCF1F920F920FB6D3
S11301400F9211248F939F93EF93FF938091040157
S1130150882319F0813051F011C08091780090917A
S11301607900909303018093020108C08091780084
S11301709091790090930101809300018091040192
S113018090E0019681709078992324F401978E6F02
S11301909F6F019680930401ECE7F0E090818091D9
S11301A00401907F8370892B8083EAE7F0E08081EB
S11301B080648083FF91EF919F918F910F900FBE88
S11301C00F901F90189584B1866084B982EA809359
S11301D0800082E18093810080E29EE49093870016
S11301E080938600089590938900809388000895F1
S11301F090938B0080938A000895A1E21A2EAA1B83
S1130200BB1BFD010DC0AA1FBB1FEE1FFF1FA217C2
S1130210B307E407F50720F0A21BB30BE40BF50BBF
S1130220661F771F881F991F1A9469F76095709548
S1130230809590959B01AC01BD01CF010895A29FCB
S1130240B001B39FC001A39F700D811D1124911DA6
S1130250B29F700D811D1124911D0895F894FFCF54
S9030000FC
