:100000000C9434000C9451000C9451000C94510049
:100010000C9451000C9491020C9451000C945100DA
:100020000C9451000C9451000C9451000C9451000C
:100030000C9451000C9451000C94D2020C94510079
:100040000C9451000C9451000C94AA020C94510091
:100050000C9451000C943A020C9451000C945100F1
:100060000C9451000C94510011241FBECFEFD8E026
:10007000DEBFCDBF11E0A0E0B1E0E4E8F7E002C0F0
:1000800005900D92AE30B107D9F721E0AEE0B1E0B6
:1000900001C01D92A432B207E1F70E94ED010C9459
:1000A000C0030C940000F999FECF72BD61BD80BD04
:1000B0008FB384608FBB8FB382608FBB0895F99933
:1000C000FECF92BD81BD8FB381608FBB80B5089597
:1000D000ECE7F0E0108280911B0190818F718066C7
:1000E000892B8083EAE7F0E0108280818F6880832B
:1000F0008081806480830895F8940E9468000E9443
:10010000BD020E944E030E9468038CE18AB98AB145
:100110008F798AB98BB180668BB9EDE6F0E080818A
:1001200080668083E8E6F0E0808184608083789454
:100130000895CF92DF92EF92FF92209119013091B2
:100140001A01A0EDB7E00E94B103C12CD12C7601B9
:10015000CA94A70196010E948F03C9018C509E4F3B
:100160000E945E032091170130911801A0EDB7E0C5
:100170000E94B103A70196010E948F03C9018C5010
:100180009E4F0E9463032091150130911601A0ED4E
:10019000B7E00E94B103A70196010E948F03C90135
:1001A0008C509E4F0E94C80220911301309114017F
:1001B000A0EDB7E00E94B103A70196010E948F0352
:1001C000C9018C509E4F0E94CD02FF90EF90DF90AE
:1001D000CF90089580910001823069F08330A1F0C2
:1001E0008130E1F48BB1837E84608BB981E091E052
:1001F0000E947C0308958BB1837E88608BB984E074
:1002000091E00E947C0308958BB1837E80618BB95D
:100210001092000187E091E00E947C0308958D34E4
:1002200029F0833599F08534B9F408C08BB1837E09
:1002300084608BB981E08093000108958BB1837E47
:1002400088608BB982E08093000108958BB1837E32
:1002500080618BB9109200010895CF93DF938234AF
:1002600061F018F4813431F013C0833451F08434D8
:1002700061F00EC0109210010BC081E0809310015C
:1002800007C082E08093100103C083E080931001D7
:10029000E0911001F0E0E65FFE4FD081C0E055C074
:1002A0008D2F90E00E945F00C130C1F028F0C23075
:1002B00039F1C330B9F147C0282F30E0A0EDB7E0E5
:1002C0000E94B1032FEF30E040E050E00E948F0326
:1002D000C9018C509E4F0E945E0335C0282F30E02C
:1002E000A0EDB7E00E94B1032FEF30E040E050E016
:1002F0000E948F03C9018C509E4F0E94630323C04C
:10030000282F30E0A0EDB7E00E94B1032FEF30E0DE
:1003100040E050E00E948F03C9018C509E4F0E9424
:10032000C80211C0282F30E0A0EDB7E00E94B10351
:100330002FEF30E040E050E00E948F03C9018C5065
:100340009E4F0E94CD02DF5FCF5FC43008F4A8CF7C
:10035000DF91CF910895CF93DF93E0911101F0E009
:10036000E65FFE4FD081C0E02DC0C13079F028F0AB
:10037000C230A9F0C330E1F023C0809119019091FF
:100380001A016D2F70E00E9453001AC0809117016E
:10039000909118016D2F70E00E94530011C0809160
:1003A0001501909116016D2F70E00E94530008C056
:1003B00080911301909114016D2F70E00E94530001
:1003C000DF5FCF5FC43088F2809111018F5F83704F
:1003D00080931101DF91CF9108950E947C000E94CB
:1003E000EA0080910E01882341F180910F018D3444
:1003F00041F080910F01853421F080910F01833508
:1004000021F480910F010E940F0180910F0181342E
:1004100061F080910F01823441F080910F018334AB
:1004200021F080910F01843441F4809100018230E9
:1004300021F480910F010E942D01809112018130E1
:1004400049F410921201809100018F5F80930001A6
:100450000E94EA0080910001813019F60E94990003
:1004600080911201823009F0BCCF109212010E94DB
:10047000AB01B7CF1F920F920FB60F9211248F933B
:100480009F93EF93FF9380911B01813071F028F0CF
:10049000823099F08330C9F01FC08091790090E0DC
:1004A00090931A018093190117C08091790090E010
:1004B00090931801809317010FC08091790090E00C
:1004C000909316018093150107C08091790090E008
:1004D000909314018093130180911B0190E0019689
:1004E00083709078992324F401978C6F9F6F019605
:1004F00080931B01ECE7F0E0908180911B01907FDD
:100500008F71892B8083EAE7F0E0808180648083AB
:10051000FF91EF919F918F910F900FBE0F901F90C1
:1005200018951F920F920FB60F9211248F9310926D
:1005300012014D9904C081E08093120105C04E99CB
:1005400003C082E0809312018F910F900FBE0F9035
:100550001F9018951F920F920FB60F9211248F9330
:100560008091C60080930F0181E080930E018F91EE
:100570000F900FBE0F901F90189584B1886384B9B7
:1005800082E084BD85BD94E697BD80936E0008959A
:100590009093210180932001089590931F018093EF
:1005A0001E0108951F920F920FB60F9211242F93E0
:1005B0003F936F937F938F939F93AF93BF9380915C
:1005C00022019091230101969093230180932201AF
:1005D00080912201909123018039914020F0109266
:1005E0002301109222018091220190912301892BF5
:1005F00021F485B1886385B944C0209120013091F0
:10060000210136952795ABE7B4E10E94B103969599
:10061000879520912201309123018217930721F4BD
:1006200085B1877F85B92DC020911E0130911F01B2
:1006300036952795ABE7B4E10E94B103969587956F
:1006400020912201309123018217930721F485B173
:100650008F7E85B916C020911C0130911D01369501
:100660002795ABE7B4E10E94B10396958795209159
:100670002201309123018217930719F485B18F7DF0
:1006800085B9BF91AF919F918F917F916F913F916C
:100690002F910F900FBE0F901F90189584B1866018
:1006A00084B982EA8093800082E18093810080E2B5
:1006B0009EE490938700809386000895909389002C
:1006C00080938800089590938B0080938A0008950A
:1006D00087E690E09093C5008093C40088E98093FA
:1006E000C10086E08093C20008959091C00095FFFC
:1006F000FCCF8093C60008950F931F93CF938C0176
:10070000C0E003C00E947503CF5FF801EC0FF11D3C
:1007100080818111F7CFCF911F910F910895A1E2B0
:100720001A2EAA1BBB1BFD010DC0AA1FBB1FEE1F6B
:10073000FF1FA217B307E407F50720F0A21BB30BB6
:10074000E40BF50B661F771F881F991F1A9469F732
:1007500060957095809590959B01AC01BD01CF018E
:100760000895A29FB001B39FC001A39F700D811D8A
:100770001124911DB29F700D811D1124911D0895AA
:04078000F894FFCF1B
:0E078400014D0A00450A00530A000004080C4B
:00000001FF
