S011000050726F796563746F322E737265638C
S11300000C9434000C9451000C9451000C94510045
S11300100C9451000C94E1020C9451000C94510086
S11300200C9451000C9451000C9451000C94510008
S11300300C9451000C9451000C9458030C945100EE
S11300400C9451000C9451000C9414030C94510022
S11300500C9451000C948A020C9451000C9451009D
S11300600C9451000C94510011241FBECFEFD8E022
S1130070DEBFCDBF11E0A0E0B1E0E0E9F8E002C0EE
S113008005900D92AE30B107D9F721E0AEE0B1E0B2
S113009001C01D92A832B207E1F70E9421020C941C
S11300A046040C940000F999FECF72BD61BD80BD79
S11300B08FB384608FBB8FB382608FBB0895F9992F
S11300C0FECF92BD81BD8FB381608FBB80B5089593
S11300D0ECE7F0E0108280911D0190818F718066C1
S11300E0892B8083EAE7F0E0108280818F68808327
S11300F08081806480830895F8940E9468000E943F
S113010043030E94D4030E94EE038CE18AB98AB1AE
S11301108F798AB98BB180668BB9EDE6F0E0808186
S113012080668083E8E6F0E0808184608083789450
S11301300895CF92DF92EF92FF9220911B013091AC
S11301401C01A0EDB7E00E943704C12CD12C76012C
S1130150CA94A70196010E941504C9018C509E4FB0
S11301600E94E4032091190130911A01A0EDB7E037
S11301700E943704A70196010E941504C9018C50FE
S11301809E4F0E94E9032091170130911801A0EDC0
S1130190B7E00E943704A70196010E941504C90123
S11301A08C509E4F0E944E03809115019091160130
S11301B08034910530F08FE390E0909316018093A2
S11301C015012091150130911601A0EDB7E00E94B0
S11301D037042FEF30E040E050E00E941504C901DD
S11301E08C509E4F0E945303FF90EF90DF90CF906E
S11301F00895823079F018F4813031F01CC08330D6
S113020079F0843099F017C070E070931C0160930A
S11302101B0111C070E070931A01609319010BC0A7
S113022070E0709318016093170105C070E070933B
S11302301601609315010E949900089580910001B0
S1130240823069F08330A1F08130E1F48BB1837E98
S113025084608BB981E091E00E94020408958BB11F
S1130260837E88608BB984E091E00E940204089543
S11302708BB1837E80618BB91092000187E091E09D
S11302800E94020408958D3429F0833599F0853451
S1130290B9F408C08BB1837E84608BB981E080930C
S11302A0000108958BB1837E88608BB982E08093CE
S11302B0000108958BB1837E80618BB91092000197
S11302C00895CF93DF93823461F018F4813431F0D0
S11302D013C0833451F0843461F00EC010921201C3
S11302E00BC081E08093120107C082E08093120169
S11302F003C083E080931201E0911201F0E0E65F15
S1130300FE4FD081C0E055C08D2F90E00E945F0069
S1130310C130C1F028F0C23039F1C330B9F147C05F
S1130320282F30E0A0EDB7E00E9437042FEF30E033
S113033040E050E00E941504C9018C509E4F0E9479
S1130340E40335C0282F30E0A0EDB7E00E94370465
S11303502FEF30E040E050E00E941504C9018C50BA
S11303609E4F0E94E90323C0282F30E0A0EDB7E0A0
S11303700E9437042FEF30E040E050E00E94150463
S1130380C9018C509E4F0E944E0311C0282F30E0AB
S1130390A0EDB7E00E9437042FEF30E040E050E0DA
S11303A00E941504C9018C509E4F0E945303DF5FC5
S11303B0CF5FC43008F4A8CFDF91CF910895CF93D5
S11303C0DF93E0911301F0E0E65FFE4FD081C0E0DF
S11303D02DC0C13079F028F0C230A9F0C330E1F06B
S11303E023C080911B0190911C016D2F70E00E942D
S11303F053001AC08091190190911A016D2F70E079
S11304000E94530011C080911701909118016D2F23
S113041070E00E94530008C080911501909116016C
S11304206D2F70E00E945300DF5FCF5FC43088F20D
S1130430809113018F5F837080931301DF91CF91BB
S113044008950E947C000E941E018091100188235F
S113045009F44FC01092100180910F01853429F4E2
S1130460809111010E94430144C080910F018035A5
S113047049F480910001823029F4809111010E9495
S1130480610137C080910F01873551F480910001DB
S1130490811106C06091110181E00E94F90029C018
S11304A080910F01883551F480910001811106C0BB
S11304B06091110182E00E94F9001BC080910F013C
S11304C0893551F480910001811106C060911101B8
S11304D083E00E94F9000DC080910F018A3549F430
S11304E080910001811105C06091110184E00E9496
S11304F0F90080910001813009F0A7CF0E94990092
S113050080911401823009F0A0CF109214010E944E
S1130510DF019BCF1F920F920FB60F9211248F937E
S11305209F93EF93FF9380911D01813071F028F028
S1130530823099F08330C9F01FC08091790090E037
S113054090931C0180931B0117C08091790090E067
S113055090931A01809319010FC08091790090E063
S1130560909318018093170107C08091790090E05F
S1130570909316018093150180911D0190E00196DE
S113058083709078992324F401978C6F9F6F019660
S113059080931D01ECE7F0E0908180911D01907F34
S11305A08F71892B8083EAE7F0E080818064808307
S11305B0FF91EF919F918F910F900FBE0F901F901D
S11305C018951F920F920FB60F9211242F933F93F9
S11305D04F935F936F937F938F939F93AF93BF9347
S11305E0EF93FF93109214014D9908C0809100017C
S11305F08F5F809300010E941E0105C04E9903C0C5
S113060082E080931401FF91EF91BF91AF919F918C
S11306108F917F916F915F914F913F912F910F90A7
S11306200FBE0F901F9018951F920F920FB60F9246
S113063011248F939F93EF93FF938091C600E091D1
S11306400E0191E09E0F90930E01F0E0EA5DFE4FE3
S1130650808380910E01823068F0E6E2F1E08081CF
S113066080930F0181818093110110920E0181E02A
S113067080931001FF91EF919F918F910F900FBE86
S11306800F901F90189584B1886384B982E084BD6B
S113069085BD94E697BD80936E00089590932301E1
S11306A0809322010895909321018093200108955D
S11306B01F920F920FB60F9211242F933F936F93B3
S11306C07F938F939F93AF93BF93809124019091D5
S11306D025010196909325018093240180912401A2
S11306E0909125018039914020F0109225011092BB
S11306F024018091240190912501892B21F485B155
S1130700886385B944C02091220130912301369534
S11307102795ABE7B4E10E9437049695879520911D
S11307202401309125018217930721F485B1877F35
S113073085B92DC02091200130912101369527954E
S1130740ABE7B4E10E943704969587952091240184
S1130750309125018217930721F485B18F7E85B9E5
S113076016C020911E0130911F0136952795ABE7E5
S1130770B4E10E9437049695879520912401309125
S113078025018217930719F485B18F7D85B9BF912F
S1130790AF919F918F917F916F913F912F910F9086
S11307A00FBE0F901F90189584B1866084B982EAB9
S11307B08093800082E18093810080E29EE49093A4
S11307C08700809386000895909389008093880021
S11307D0089590938B0080938A00089587E690E0B3
S11307E09093C5008093C40088E98093C10086E09B
S11307F08093C20008959091C00095FFFCCF809330
S1130800C60008950F931F93CF938C01C0E003C0DB
S11308100E94FB03CF5FF801EC0FF11D8081811171
S1130820F7CFCF911F910F910895A1E21A2EAA1B21
S1130830BB1BFD010DC0AA1FBB1FEE1FFF1FA2178C
S1130840B307E407F50720F0A21BB30BE40BF50B89
S1130850661F771F881F991F1A9469F76095709512
S1130860809590959B01AC01BD01CF010895A29F95
S1130870B001B39FC001A39F700D811D1124911D70
S1130880B29F700D811D1124911D0895F894FFCF1E
S1110890014D0A00450A00530A000004080C3A
S9030000FC
